:100000000C942A000C9448070C9475070C94A207D2
:100010000C9447000C9447000C9447000C94470044
:100020000C9447000C9447000C9447000C94470034
:100030000C9497030C94F9010C9449020C94A202BD
:100040000C9447000C9447000C9447000C94470014
:100050000C94470011241FBECFE5D8E0DEBFCDBF12
:1000600011E0A0E6B0E0EAECFDE202C005900D92DE
:10007000AE36B107D9F711E0AEE6B1E001C01D928E
:10008000A239B107E1F70E944A110C94E3160C94CF
:100090000000DF93CF9300D0CDB7DEB783E390E0CD
:1000A0009A838983E9E2F0E089818083E0E4F0E0EB
:1000B00089819A81892F99278083AAE2B0E0EAE2B8
:1000C000F0E0808188608C93AAE2B0E0EAE2F0E0A0
:1000D000808180618C93A0E4B0E0E0E4F0E0808176
:1000E00086688C930F900F90CF91DF910895DF93E6
:1000F000CF9300D000D0CDB7DEB78C831B821A829D
:100100001982ECE2F0E08C81808305C089819A81BC
:1001100001969A838983EBE2F0E08081829586954F
:100120008770882F90E081709070009731F48981FA
:100130009A812CE98034920748F389819A812CE9CD
:100140008034920711F481E08B838B810F900F90A4
:100150000F900F90CF91DF910895DF93CF9300D050
:1001600000D00F92CDB7DEB79D838C831B821A829D
:1001700019828C819D810097B1F12FC01A8219825A
:10018000ECE2F0E0AC81BD818C91808305C0898177
:100190009A8101969A838983EBE2F0E080818295CF
:1001A00086958770882F90E081709070009731F469
:1001B00089819A812CE98034920748F389819A8158
:1001C0002CE98034920731F08C819D8101969D83CA
:1001D0008C8303C081E08B8308C0EC81FD8180812A
:1001E000882361F602C081E08B838B810F900F9092
:1001F0000F900F900F90CF91DF910895DF93CF93E1
:1002000000D000D00F92CDB7DEB79B838A837D8369
:100210006C8319828A819B810097D1F08C819D81AA
:100220000097B1F010927501AAE2B0E0EAE2F0E0C6
:10023000808180628C938A819B81909371018093ED
:1002400070018C819D8190936F0180936E0102C03B
:1002500081E0898389810F900F900F900F900F900C
:10026000CF91DF910895DF93CF9300D000D00F920C
:10027000CDB7DEB79D838C831B821A8219828C8155
:100280009D81009709F105C089819A8101969A8321
:100290008983EBE2F0E08081882334F089819A81C0
:1002A0002CE98034920780F389819A812CE980348B
:1002B000920719F481E08B8309C0ECE2F0E08081C1
:1002C000EC81FD81808302C081E08B838B810F9064
:1002D0000F900F900F900F90CF91DF910895DF93C3
:1002E000CF93CDB7DEB727970FB6F894DEBF0FBE1A
:1002F000CDBF9E838D836F831C821A8219828D816C
:100300009E81009781F11B8229C089819A81019683
:100310009A838983EBE2F0E08081882334F089813D
:100320009A812CE98034920780F389819A812CE9A3
:100330008034920781F08B81282F30E08D819E815F
:10034000DC01A20FB31FECE2F0E080818C938B8183
:100350008F5F8B8303C081E08C8307C09B818F817B
:100360009817C0F202C081E08C838C8127960FB66B
:10037000F894DEBF0FBECDBFCF91DF910895DF931C
:10038000CF9300D000D000D0CDB7DEB79B838A8357
:100390006C835E834D8319828A819B810097E9F08B
:1003A0008D819E810097C9F0109275018A819B8191
:1003B00090937301809372018C81809374018D817D
:1003C0009E8190936F0180936E01AAE2B0E0EAE211
:1003D000F0E0808180628C9302C081E08983898112
:1003E00026960FB6F894DEBF0FBECDBFCF91DF913A
:1003F00008951F920F920FB60F9211242F933F93DF
:100400004F935F936F937F938F939F93AF93BF931C
:10041000EF93FF93DF93CF93CDB7DEB720917201B7
:100420003091730180917501882F90E0D901A80F58
:10043000B91FECE2F0E080818C93809175018F5FB1
:10044000809375019091750180917401981771F4F2
:1004500010927501AAE2B0E0EAE2F0E080818F77C5
:100460008C93E0916E01F0916F010995CF91DF912E
:10047000FF91EF91BF91AF919F918F917F916F917C
:100480005F914F913F912F910F900FBE0F901F9052
:1004900018951F920F920FB60F9211242F933F932E
:1004A0004F935F936F937F938F939F93AF93BF937C
:1004B000EF93FF93DF93CF93CDB7DEB72091700119
:1004C0003091710180917501882F90E0F901E80F5A
:1004D000F91F8081882381F0ACE2B0E020917001A7
:1004E0003091710180917501882F90E0F901E80F3A
:1004F000F91F80818C930EC010927501E0916E01FE
:10050000F0916F010995AAE2B0E0EAE2F0E08081A3
:100510008F7D8C93809175018F5F80937501CF9152
:10052000DF91FF91EF91BF91AF919F918F917F915B
:100530006F915F914F913F912F910F900FBE0F9050
:100540001F9018951F920F920FB60F921124DF93F0
:10055000CF93CDB7DEB7CF91DF910F900FBE0F9045
:100560001F901895DF93CF93CDB7DEB7ADE2B0E023
:10057000EDE2F0E0808180618C93ADE2B0E0EDE2ED
:10058000F0E0808181608C93ADE2B0E0EDE2F0E0DC
:10059000808180648C93CF91DF910895DF93CF9316
:1005A00000D000D000D0CDB7DEB79D838C8381E032
:1005B0008B831A8219828C819D81009709F105C075
:1005C00089819A8101969A838983EEE2F0E08081A5
:1005D000882334F089819A8123EC8035920780F357
:1005E00089819A8123EC8035920719F481E08E830A
:1005F00009C0EFE2F0E08081EC81FD8180831B8205
:100600002B812E838E8126960FB6F894DEBF0FBE07
:10061000CDBFCF91DF910895DF93CF9300D000D06D
:100620000F92CDB7DEB78C8381E08B831A8219825B
:10063000EFE2F0E08C81808305C089819A81019688
:100640009A838983EEE2F0E08081882334F0898107
:100650009A8123EC8035920780F389819A8123EC7B
:100660008035920719F481E08D8303C01B822B81B2
:100670002D838D810F900F900F900F900F90CF9141
:10068000DF910895DF93CF93CDB7DEB728970FB6EC
:10069000F894DEBF0FBECDBF9B838A837D836C83BE
:1006A0004E8338872F8381E089838A819B810097DD
:1006B000A1F18C819D81009781F18F8198850097B0
:1006C00061F119828A819B819093790180937801ED
:1006D0008C819D8190937B0180937A018F81988595
:1006E00090937701809376018E8180937C01AFE2B5
:1006F000B0E0209178013091790180917D01882FBF
:1007000090E0F901E80FF91F80818C93ADE2B0E031
:10071000EDE2F0E0808180688C93898128960FB6A5
:10072000F894DEBF0FBECDBFCF91DF9108951F9229
:100730000F920FB60F9211242F933F934F935F9315
:100740006F937F938F939F93AF93BF93EF93FF9399
:10075000DF93CF93CDB7DEB720917A0130917B0143
:1007600080917D01882F90E0D901A80FB91FEFE299
:10077000F0E080818C9390917D0180917C019817AD
:1007800089F410927D0110927C01ADE2B0E0EDE2BF
:10079000F0E080818F778C93E0917601F091770182
:1007A000099514C080917D018F5F80937D01AFE238
:1007B000B0E0209178013091790180917D01882FFE
:1007C00090E0F901E80FF91F80818C93CF91DF91C0
:1007D000FF91EF91BF91AF919F918F917F916F9119
:1007E0005F914F913F912F910F900FBE0F901F90EF
:1007F0001895DF93CF93CDB7DEB7E0E2F0E082E06B
:100800008083A1E2B0E0E1E2F0E080818C7F8C9314
:10081000E2E2F0E082E08083E6E5F0E084E08083DD
:10082000CF91DF910895DF93CF93CDB7DEB7E2E2AA
:10083000F0E082E08083E6E5F0E084E08083CF9121
:10084000DF910895DF93CF93CDB7DEB7E6E5F0E013
:1008500084EA8083E6E5F0E080818823DCF7E1E24A
:10086000F0E08081882F90E0887F9070883091053B
:10087000B1F7CF91DF910895DF93CF93CDB7DEB776
:10088000E6E5F0E084EA8083E6E5F0E08081882315
:10089000DCF7E1E2F0E08081882F90E0887F9070C3
:1008A00080319105B1F7CF91DF910895DF93CF9318
:1008B0000F92CDB7DEB78983E3E2F0E08981880F3C
:1008C0008083E6E5F0E084E88083E6E5F0E080817F
:1008D0008823DCF7E1E2F0E08081882F90E0887FD8
:1008E000907088319105B1F70F90CF91DF91089505
:1008F000DF93CF930F92CDB7DEB78983E3E2F0E0C9
:100900008981882F90E0880F991F81608083E6E5B8
:10091000F0E084E88083E6E5F0E080818823DCF77E
:10092000E1E2F0E08081882F90E0887F9070803451
:100930009105B1F70F90CF91DF910895DF93CF9399
:100940000F92CDB7DEB78983E3E2F0E0898180833F
:10095000E6E5F0E084E88083E6E5F0E08081882346
:10096000DCF7E1E2F0E08081882F90E0887F9070F2
:1009700088329105B1F70F90CF91DF910895DF9301
:10098000CF93CDB7DEB7E6E5F0E084E88083E6E517
:10099000F0E080818823DCF7E1E2F0E08081882FBD
:1009A00090E0887F907088359105B1F7E3E2F0E040
:1009B0008081CF91DF910895DF93CF93CDB7DEB7DC
:1009C000E6E5F0E084E98083CF91DF910895DF933D
:1009D000CF93CDB7DEB7E6E5F0E084EC8083E6E5C3
:1009E000F0E080818823DCF7E1E2F0E08081882F6D
:1009F00090E0887F907080369105B1F7CF91DF91BC
:100A00000895DF93CF93CDB7DEB7E6E5F0E084EC51
:100A10008083E6E5F0E080818823DCF7E1E2F0E026
:100A20008081882F90E0887F9070883A9105B1F797
:100A3000CF91DF910895DF93CF93CDB7DEB7E6E591
:100A4000F0E084EC8083E6E5F0E080818823DCF749
:100A5000E1E2F0E08081882F90E0887F907080381C
:100A60009105B1F7E3E2F0E08081CF91DF91089545
:100A7000DF93CF930F92CDB7DEB78983E3E2F0E047
:100A800089818083E6E5F0E084EC8083E6E5F0E0B0
:100A900080818823DCF7E1E2F0E08081882F90E01C
:100AA000887F9070803C9105B1F70F90CF91DF91D6
:100AB0000895DF93CF93CDB7DEB7AFE5B0E0EFE5B4
:100AC000F0E0808180688C93CF91DF910895DF936F
:100AD000CF93CDB7DEB7AFE5B0E0EFE5F0E08081D2
:100AE0008F778C93CF91DF910895DF93CF93CDB71C
:100AF000DEB7A5E5B0E0E5E5F0E0808182608C93AB
:100B0000A5E5B0E0E5E5F0E080818E7F8C93ABE574
:100B1000B0E0EBE5F0E0808180648C93CF91DF91D1
:100B20000895DF93CF93CDB7DEB7A5E5B0E0E5E557
:100B3000F0E0808188608C93A5E5B0E0E5E5F0E029
:100B4000808184608C93ABE5B0E0EBE5F0E08081E0
:100B500080688C93CF91DF910895DF93CF93CDB7C9
:100B6000DEB7A4E5B0E0E4E5F0E080818F7B8C9314
:100B7000ABE5B0E0EBE5F0E0808180628C93CF9153
:100B8000DF910895DF93CF9300D00F92CDB7DEB7FA
:100B900089838981282F30E03B832A838A819B8146
:100BA0008230910529F12A813B812330310534F4CB
:100BB0008A819B818130910561F046C02A813B8109
:100BC0002330310521F18A819B818430910571F1B7
:100BD0003BC0A5E5B0E0E5E5F0E080818D7F8C933A
:100BE000A5E5B0E0E5E5F0E080818E7F8C932CC038
:100BF000A5E5B0E0E5E5F0E080818D7F8C93A5E58B
:100C0000B0E0E5E5F0E0808181608C931DC0A5E552
:100C1000B0E0E5E5F0E0808182608C93A5E5B0E08E
:100C2000E5E5F0E080818E7F8C930EC0A5E5B0E015
:100C3000E5E5F0E0808182608C93A5E5B0E0E5E534
:100C4000F0E0808181608C930F900F900F90CF9196
:100C5000DF910895DF93CF9300D00F92CDB7DEB729
:100C600089838981282F30E03B832A838A819B8175
:100C70008230910529F12A813B812330310534F4FA
:100C80008A819B818130910561F046C02A813B8138
:100C90002330310521F18A819B818430910571F1E6
:100CA0003BC0A5E5B0E0E5E5F0E08081877F8C936F
:100CB000A5E5B0E0E5E5F0E080818B7F8C932CC06A
:100CC000A5E5B0E0E5E5F0E08081877F8C93A5E5C0
:100CD000B0E0E5E5F0E0808184608C931DC0A5E57F
:100CE000B0E0E5E5F0E0808188608C93A5E5B0E0B8
:100CF000E5E5F0E080818B7F8C930EC0A5E5B0E048
:100D0000E5E5F0E0808188608C93A5E5B0E0E5E55D
:100D1000F0E0808184608C930F900F900F90CF91C2
:100D2000DF910895DF93CF9300D00F92CDB7DEB758
:100D300089838981282F30E03B832A838A819B81A4
:100D40008330910531F02A813B812430310549F00F
:100D50000FC0A4E5B0E0E4E5F0E080818F7B8C93E8
:100D600007C0A4E5B0E0E4E5F0E0808180648C9306
:100D70000F900F900F90CF91DF910895DF93CF9355
:100D8000CDB7DEB7ABE5B0E0EBE5F0E080818064A5
:100D90008C93CF91DF910895DF93CF93CDB7DEB7DA
:100DA000ABE5B0E0EBE5F0E080818F7B8C93CF91F9
:100DB000DF910895DF93CF93CDB7DEB7ABE5B0E019
:100DC000EBE5F0E0808180688C93CF91DF9108950E
:100DD000DF93CF93CDB7DEB7ABE5B0E0EBE5F0E066
:100DE00080818F778C93CF91DF910895DF93CF939C
:100DF000CDB7DEB7ABE5B0E0EBE5F0E08081806237
:100E00008C93CF91DF910895DF93CF93CDB7DEB769
:100E1000ABE5B0E0EBE5F0E080818F7D8C93CF9186
:100E2000DF910895DF93CF9300D0CDB7DEB79A83DB
:100E3000898389819A8190937F0180937E010F90AD
:100E40000F90CF91DF910895DF93CF9300D0CDB76E
:100E5000DEB79A83898389819A81909383018093F5
:100E600082010F900F90CF91DF910895DF93CF9380
:100E700000D0CDB7DEB79A83898389819A81909318
:100E80008101809380010F900F90CF91DF910895A1
:100E90001F920F920FB60F9211242F933F934F93EF
:100EA0005F936F937F938F939F93AF93BF93EF93D2
:100EB000FF93DF93CF93CDB7DEB7E0917E01F09142
:100EC0007F010995CF91DF91FF91EF91BF91AF9194
:100ED0009F918F917F916F915F914F913F912F9152
:100EE0000F900FBE0F901F9018951F920F920FB684
:100EF0000F9211242F933F934F935F936F937F93A0
:100F00008F939F93AF93BF93EF93FF93DF93CF9311
:100F1000CDB7DEB7E0918201F09183010995CF91C1
:100F2000DF91FF91EF91BF91AF919F918F917F9151
:100F30006F915F914F913F912F910F900FBE0F9046
:100F40001F9018951F920F920FB60F9211242F9396
:100F50003F934F935F936F937F938F939F93AF9341
:100F6000BF93EF93FF93DF93CF93CDB7DEB7E091BD
:100F70008001F09181010995CF91DF91FF91EF916F
:100F8000BF91AF919F918F917F916F915F914F91A1
:100F90003F912F910F900FBE0F901F901895DF93E8
:100FA000CF93CDB7DEB72A970FB6F894DEBF0FBE4A
:100FB000CDBF8A836B834C8319828C81282F30E0CC
:100FC0003A87298789859A85009739F029853A8556
:100FD0002130310509F478C0E9C08A81282F30E03A
:100FE00038872F838F8198858130910559F12F8122
:100FF0003885223031052CF48F819885009769F06F
:1010000060C02F8138852230310589F18F81988524
:101010008330910509F440C054C0AAE3B0E0EAE38C
:10102000F0E08081482F8B81282F30E081E090E034
:10103000022E02C0880F991F0A94E2F7809584233C
:101040008C93B6C0A7E3B0E0E7E3F0E08081482FDF
:101050008B81282F30E081E090E0022E02C0880FC3
:10106000991F0A94E2F7809584238C93A1C0A4E38E
:10107000B0E0E4E3F0E08081482F8B81282F30E05E
:1010800081E090E0022E02C0880F991F0A94E2F7D7
:10109000809584238C938CC0A1E3B0E0E1E3F0E081
:1010A0008081482F8B81282F30E081E090E0022E54
:1010B00002C0880F991F0A94E2F7809584238C93CD
:1010C00077C081E0898374C08A81282F30E03E8315
:1010D0002D838D819E818130910549F12D813E8145
:1010E000223031052CF48D819E81009761F05BC028
:1010F0002D813E812230310571F18D819E818330B9
:101100009105E9F150C0AAE3B0E0EAE3F0E08081A4
:10111000482F8B81282F30E081E090E0022E02C022
:10112000880F991F0A94E2F7842B8C9341C0A7E3A0
:10113000B0E0E7E3F0E08081482F8B81282F30E09A
:1011400081E090E0022E02C0880F991F0A94E2F716
:10115000842B8C932DC0A4E3B0E0E4E3F0E0808125
:10116000482F8B81282F30E081E090E0022E02C0D2
:10117000880F991F0A94E2F7842B8C9319C0A1E37E
:10118000B0E0E1E3F0E08081482F8B81282F30E050
:1011900081E090E0022E02C0880F991F0A94E2F7C6
:1011A000842B8C9305C081E0898302C081E0898310
:1011B00089812A960FB6F894DEBF0FBECDBFCF91BE
:1011C000DF910895DF93CF93CDB7DEB72A970FB69F
:1011D000F894DEBF0FBECDBF8A836B834C83198228
:1011E0008C81282F30E03A87298789859A85009756
:1011F00039F029853A852130310509F478C0E9C0F4
:101200008A81282F30E038872F838F81988581301D
:10121000910559F12F813885223031052CF48F81C9
:101220009885009769F060C02F813885223031059C
:1012300089F18F8198858330910509F440C054C0AD
:10124000ABE3B0E0EBE3F0E08081482F8B81282F07
:1012500030E081E090E0022E02C0880F991F0A94CE
:10126000E2F7809584238C93B6C0A8E3B0E0E8E36E
:10127000F0E08081482F8B81282F30E081E090E0E2
:10128000022E02C0880F991F0A94E2F780958423EA
:101290008C93A1C0A5E3B0E0E5E3F0E08081482FA6
:1012A0008B81282F30E081E090E0022E02C0880F71
:1012B000991F0A94E2F7809584238C938CC0A2E353
:1012C000B0E0E2E3F0E08081482F8B81282F30E00E
:1012D00081E090E0022E02C0880F991F0A94E2F785
:1012E000809584238C9377C081E0898374C08A8140
:1012F000282F30E03E832D838D819E8181309105A2
:1013000049F12D813E81223031052CF48D819E8161
:10131000009761F05BC02D813E812230310571F173
:101320008D819E8183309105E9F150C0ABE3B0E03F
:10133000EBE3F0E08081482F8B81282F30E081E0C3
:1013400090E0022E02C0880F991F0A94E2F7842BC6
:101350008C9341C0A8E3B0E0E8E3F0E08081482F3F
:101360008B81282F30E081E090E0022E02C0880FB0
:10137000991F0A94E2F7842B8C932DC0A5E3B0E06B
:10138000E5E3F0E08081482F8B81282F30E081E079
:1013900090E0022E02C0880F991F0A94E2F7842B76
:1013A0008C9319C0A2E3B0E0E2E3F0E08081482F23
:1013B0008B81282F30E081E090E0022E02C0880F60
:1013C000991F0A94E2F7842B8C9305C081E08983EE
:1013D00002C081E0898389812A960FB6F894DEBF26
:1013E0000FBECDBFCF91DF910895DF93CF9300D093
:1013F00000D00F92CDB7DEB78A836B8319828A81C2
:10140000282F30E03D832C838C819D818130910594
:10141000D1F02C813D81223031052CF48C819D81CD
:10142000009761F01FC02C813D812230310581F091
:101430008C819D818330910581F014C0EAE3F0E056
:101440008B81808311C0E7E3F0E08B8180830CC047
:10145000E4E3F0E08B81808307C0E1E3F0E08B817F
:10146000808302C081E0898389810F900F900F9063
:101470000F900F90CF91DF910895DF93CF9300D01D
:1014800000D00F92CDB7DEB78A836B8319828A8131
:10149000282F30E03D832C838C819D818130910504
:1014A000D1F02C813D81223031052CF48C819D813D
:1014B000009761F01FC02C813D812230310581F001
:1014C0008C819D818330910581F014C0EBE3F0E0C5
:1014D0008B81808311C0E8E3F0E08B8180830CC0B6
:1014E000E5E3F0E08B81808307C0E2E3F0E08B81ED
:1014F000808302C081E0898389810F900F900F90D3
:101500000F900F90CF91DF910895DF93CF9300D08C
:1015100000D00F92CDB7DEB78A836B8319828A81A0
:10152000282F30E03D832C838C819D818130910573
:1015300049F12C813D81223031052CF48C819D8133
:10154000009761F05BC02C813D812230310571F143
:101550008C819D8183309105E9F150C0ABE3B0E00F
:10156000EBE3F0E08081482F8B81282F30E081E091
:1015700090E0022E02C0880F991F0A94E2F7842798
:101580008C933EC0A8E3B0E0E8E3F0E08081482F10
:101590008B81282F30E081E090E0022E02C0880F7E
:1015A000991F0A94E2F784278C932AC0A5E3B0E040
:1015B000E5E3F0E08081482F8B81282F30E081E047
:1015C00090E0022E02C0880F991F0A94E2F7842748
:1015D0008C9316C0A2E3B0E0E2E3F0E08081482FF4
:1015E0008B81282F30E081E090E0022E02C0880F2E
:1015F000991F0A94E2F784278C9302C081E08983C3
:1016000089810F900F900F900F900F90CF91DF91E5
:101610000895DF93CF93CDB7DEB727970FB6F89431
:10162000DEBF0FBECDBF8A836B835D834C8319827F
:101630008A81282F30E03F832E834E815F814130A5
:10164000510559F18E819F818230910534F42E81AC
:101650003F812115310569F05CC04E815F814230C8
:10166000510579F18E819F818330910509F43DC048
:1016700050C0E9E3F0E08081282F30E08B81882F93
:1016800090E0A90102C0559547958A95E2F7CA01F5
:101690008170EC81FD8180833EC0E6E3F0E08081D3
:1016A000282F30E08B81882F90E0A90102C055954A
:1016B00047958A95E2F7CA018170EC81FD818083AC
:1016C0002AC0E3E3F0E08081282F30E08B81882F6F
:1016D00090E0A90102C0559547958A95E2F7CA01A5
:1016E0008170EC81FD81808316C0E0E3F0E08081B1
:1016F000282F30E08B81882F90E0A90102C05595FA
:1017000047958A95E2F7CA018170EC81FD8180835B
:1017100002C081E08983898127960FB6F894DEBFE5
:101720000FBECDBFCF91DF910895DF93CF93CDB79B
:10173000DEB72C970FB6F894DEBF0FBECDBF69871A
:101740007A878B879C871D821E821F82188619824A
:101750001A821B821C821D821E821F82188628C04C
:1017600019821A821B821C820FC000000000000038
:10177000000089819A81AB81BC810196A11DB11DB8
:1017800089839A83AB83BC8389819A81AB81BC8135
:10179000803D9105A105B10540F38D819E81AF810A
:1017A000B8850196A11DB11D8D839E83AF83B88737
:1017B0002D813E814F81588589859A85AB85BC8571
:1017C000281739074A075B0758F22C960FB6F8948A
:1017D000DEBF0FBECDBFCF91DF910895DF93CF93D2
:1017E000CDB7DEB783E065E041E00E94CF0783E03C
:1017F00066E041E00E94CF0783E067E041E00E949D
:10180000CF0783E067E040E00E94E208CF91DF91DC
:101810000895DF93CF9300D000D00F92CDB7DEB7FD
:101820008B837D836C8383E066E04B810E94E208BA
:101830001A8219821BC083E065E041E00E94E20841
:1018400061E070E080E090E00E94950B83E065E04D
:1018500040E00E94E20861E070E080E090E00E94D9
:10186000950B89819A8101969A83898329813A818E
:101870008C819D8128173907F0F20F900F900F90FF
:101880000F900F90CF91DF910895DF93CF93CDB755
:10189000DEB727970FB6F894DEBF0FBECDBF9E838D
:1018A0008D836F838F81863008F058C08F81282FF9
:1018B00030E0ED81FE818081882F90E0281B390B7C
:1018C00088EE93E0AC01249FC001259F900D349FCA
:1018D000900D11249C838B83ED81FE818081282FC4
:1018E00030E08F81882F90E0281B390B88EE93E041
:1018F000AC01249FC001259F900D349F900D1124B1
:101900009A8389838B819C81992334F48B819C8178
:101910008059984E9C838B8389819A81992334F4D2
:1019200089819A818059984E9A8389832B813C8141
:1019300089819A81821793073CF02B813C8181E059
:10194000B9010E94090C06C029813A8180E0B901E1
:101950000E94090CED81FE818F81808327960FB64E
:10196000F894DEBF0FBECDBFCF91DF910895DF9316
:10197000CF93CDB7DEB780E06FEF0E94F50980E02E
:101980006FEF0E943D0ACF91DF910895DF93CF93CF
:1019900000D00F92CDB7DEB789838981282F30E040
:1019A0003B832A838A819B818430910509F455C049
:1019B0002A813B8125303105DCF48A819B8181308D
:1019C000910509F43BC02A813B81223031052CF47A
:1019D0008A819B81009769F15DC02A813B81223019
:1019E000310589F18A819B818330910589F152C04B
:1019F0002A813B812730310509F43EC08A819B81D1
:101A0000883091055CF42A813B812530310551F104
:101A10008A819B818630910551F13CC02A813B81AE
:101A20002830310571F18A819B818930910571F1EE
:101A300031C080E060EC0E943D0A2CC080E069EF7C
:101A40000E943D0A27C080E064EA0E943D0A22C04D
:101A500080E060EB0E943D0A1DC080E069E90E94C1
:101A60003D0A18C080E062E90E943D0A13C080E090
:101A700062E80E943D0A0EC080E068EF0E943D0AC5
:101A800009C080E060E80E943D0A04C080E060E98F
:101A90000E943D0A0F900F900F90CF91DF91089513
:101AA000DF93CF93CDB7DEB782E065E041E00E94DF
:101AB000CF0782E066E041E00E94CF0782E063E06A
:101AC00041E00E94CF0782E062E041E00E94CF0740
:101AD00082E064E041E00E94CF07CF91DF9108955A
:101AE000DF93CF9300D0CDB7DEB789836A83898136
:101AF0006A8141E00E94E2080F900F90CF91DF9140
:101B00000895DF93CF9300D0CDB7DEB789836A8382
:101B100089816A8140E00E94E2080F900F90CF9186
:101B2000DF910895DF93CF9300D0CDB7DEB78983DF
:101B30006A8389816A810E94850A0F900F90CF91F4
:101B4000DF910895DF93CF93CDB7DEB783E062E0F6
:101B500040E00E94CF0783E062E041E00E94E2089B
:101B60000E9475050E94BE06CF91DF910895DF9314
:101B7000CF93CDB7DEB70E94CC06CF91DF91089509
:101B8000DF93CF93CDB7DEB70E94BE06CF91DF9132
:101B90000895DF93CF9300D0CDB7DEB79A838983C2
:101BA00089819A810E9412070F900F90CF91DF9147
:101BB0000895DF93CF93CDB7DEB70E94490082E04E
:101BC00060E041E00E94CF0782E061E041E00E94D6
:101BD000CF0782E062E041E00E94CF0782E060E050
:101BE00041E00E94E20868EC70E080E090E00E9432
:101BF000950B80E690E00E94AD0068EE73E080E017
:101C000090E00E94950B85E690E00E94AD0060E1B7
:101C100077E280E090E00E94950B8EE690E00E94D3
:101C2000AD0068EE73E080E090E00E94950BCF91EC
:101C3000DF910895DF93CF93CDB7DEB7C456D04080
:101C40000FB6F894DEBF0FBECDBF8DB79EB70A9713
:101C50000FB6F8949EBF0FBE8DBFEDB7FEB731969D
:101C6000CE0101969183808384E690E09383828302
:101C70008CE790E09583848381E990E09783868365
:101C800088E990E0918780870E94FE138DB79EB708
:101C90000A960FB6F8949EBF0FBE8DBFCE01019677
:101CA0000E94AD0060E177E280E090E00E94950B39
:101CB00082E061E041E00E94E208CC59DF4F0FB6BC
:101CC000F894DEBF0FBECDBFCF91DF910895DF93B3
:101CD000CF93CDB7DEB7C656D0400FB6F894DEBF6F
:101CE0000FBECDBFFE01EB59FF4F9183808382E091
:101CF00062E041E00E94E2088DB79EB70A970FB6F6
:101D0000F8949EBF0FBE8DBFEDB7FEB73196CE01E2
:101D100001969183808384E690E09383828381EAB5
:101D200090E0958384838DEB90E09783868383EDA9
:101D300090E0918780870E94FE138DB79EB70A9628
:101D40000FB6F8949EBF0FBE8DBFCE0101960E94C4
:101D5000AD0060ED77E080E090E00E94950BFE0121
:101D6000EB59FF4F808191810E94F5139C018DB743
:101D70009EB708970FB6F8949EBF0FBE8DBFEDB704
:101D8000FEB73196CE0101969183808384E690E080
:101D90009383828386ED90E09583848337832683C3
:101DA0000E94FE138DB79EB708960FB6F8949EBF9B
:101DB0000FBE8DBFCE0101960E94AD0068EC70E0B1
:101DC00080E090E00E94950BFE01EB59FF4F80816F
:101DD00091810E94AD0060ED77E080E090E00E948C
:101DE000950B82E062E040E00E94E208CA59DF4FB2
:101DF0000FB6F894DEBF0FBECDBFCF91DF9108952F
:101E0000DF93CF93CDB7DEB70E94F903CF91DF9177
:101E10000895DF93CF9300D00F92CDB7DEB79A83AA
:101E200089836B830E94220489819A8180709770D4
:101E3000892F992780650E94560489810E949E04FB
:101E40008B810E949E040E94DC0464E070E080E0CC
:101E500090E00E94950B0F900F900F90CF91DF9123
:101E60000895DF93CF9300D00F92CDB7DEB79B8359
:101E70008A830E9422048A819B8180709770892FB7
:101E8000992780650E9456048A810E949E040E94C0
:101E90003C048A819B8180709770892F9927806587
:101EA0000E9478040E94BF0489830E94DC0464E0DD
:101EB00070E080E090E00E94950B89810F900F9078
:101EC0000F90CF91DF910895DF93CF93CDB7DEB719
:101ED00028970FB6F894DEBF0FBECDBF9C838B83CF
:101EE0007E836D8358874F831A8219821EC02B818F
:101EF0003C8189819A81A901480F591F2D813E811A
:101F000089819A81F901E80FF91F2081CA01622FA6
:101F10000E94090F65E070E080E090E00E94950B60
:101F200089819A8101969A83898329813A818F8157
:101F3000988528173907D8F228960FB6F894DEBF8F
:101F40000FBECDBFCF91DF9108950F931F93DF9305
:101F5000CF93CDB7DEB728970FB6F894DEBF0FBE8C
:101F6000CDBF9C838B837E836D8358874F831A827A
:101F700019821CC02D813E8189819A818901080FB7
:101F8000191F2B813C8189819A81820F931F0E94A6
:101F9000310FF801808365E070E080E090E00E94FE
:101FA000950B89819A8101969A83898329813A8147
:101FB0008F81988528173907E8F228960FB6F8948C
:101FC000DEBF0FBECDBFCF91DF911F910F9108955E
:101FD000DF93CF93CDB7DEB70E94D90D0E941A0EC2
:101FE00080E0CF91DF910895DF93CF93CDB7DEB737
:101FF000C353D1400FB6F894DEBF0FBECDBFFE0174
:10200000ED5CFE4F8083FE01ED5CFE4F8081282F4A
:1020100030E08DB79EB708970FB6F8949EBF0FBEFD
:102020008DBFEDB7FEB73196CE01019691838083C7
:1020300082E390E09383828386EE90E095838483AD
:10204000378326830E94FE138DB79EB708960FB67E
:10205000F8949EBF0FBE8DBFCE0101960E94F5136E
:102060009C018DB79EB70E970FB6F8949EBF0FBE1A
:102070008DBFEDB7FEB73196CE01C39691838083B5
:1020800080E091E09383828383EF90E09583848363
:1020900088E491E09783868388E591E09187808743
:1020A00033872287CE010196958784870E94FE138D
:1020B0008DB79EB70E960FB6F8949EBF0FBE8DBF1C
:1020C000CE01C3960E94670E80E0CD5CDE4F0FB656
:1020D000F894DEBF0FBECDBFCF91DF910895DF939F
:1020E000CF93CDB7DEB781E064E041E00E94CF0737
:1020F00081E065E041E00E94CF0781E066E040E0DA
:102100000E94CF0781E067E041E00E94CF070E9474
:10211000B2020E9491050E94DA0683E063E040E08B
:102120000E94CF07A8E3B0E0E8E3F0E0808180619F
:102130008C93CF91DF910895DF93CF930F92CDB71A
:10214000DEB78983A8E3B0E0E8E3F0E080818F7E2A
:102150008C9389810E940C03A8E3B0E0E8E3F0E0EF
:10216000808180618C930F90CF91DF910895DF93F0
:10217000CF9300D0CDB7DEB79A838983A8E3B0E0D0
:10218000E8E3F0E080818F7E8C938FEF0E940C0358
:1021900089819A810E94CE02A8E3B0E0E8E3F0E0F2
:1021A000808180618C930F900F90CF91DF91089583
:1021B000DF93CF9300D00F92CDB7DEB79B838A8396
:1021C000A8E3B0E0E8E3F0E080818F7E8C9380E2CA
:1021D0000E940C0319820EC08981282F30E08A8169
:1021E0009B81FC01E20FF31F80810E940C03898117
:1021F0008F5F89838981823078F3A8E3B0E0E8E3D8
:10220000F0E0808180618C930F900F900F90CF91C0
:10221000DF910895DF93CF9300D00F92CDB7DEB753
:102220009B838A83A8E3B0E0E8E3F0E080818F7EBF
:102230008C9319820FC08FEF0E940C038981282F85
:1022400030E08A819B81820F931F0E94CE02898198
:102250008F5F89838981823070F3A8E3B0E0E8E37F
:10226000F0E0808180618C930F900F900F90CF9160
:10227000DF910895DF93CF9300D0CDB7DEB79A8377
:10228000898389819A810E9424070F900F90CF91B2
:10229000DF910895DF93CF93CDB7DEB70E9457113A
:1022A000809186018823E1F30E942E13F9CFDF93FA
:1022B000CF93CDB7DEB70E94500D0E94B70C0E949D
:1022C0006F100E94000F0E94E5120E94A7120E9448
:1022D000A20D0E94EE0B80918F010E94C60C80E23D
:1022E00093E10E943A1182E193E10E94C90D0E949C
:1022F000B70D0E945905CF91DF910895DF93CF93D9
:10230000CDB7DEB763970FB6F894DEBF0FBECDBF73
:102310008B878FEF8A878FEF9FEF998788871F8240
:1023200098C08F81882F90E0FC01E957FE4F808193
:10233000882309F08BC09F818B859817A0F08F812F
:10234000282F30E08B85882F90E0281B390B88EEF2
:1023500093E0289FA001299F500D389F500D112414
:102360005F874E8719C08B85282F30E086E090E08C
:10237000AC01421B530B9A018F81882F90E0280FEC
:10238000391F88EE93E0289FA001299F500D389FA8
:10239000500D11245F874E878E859F859E838D8388
:1023A0009F818B858917A0F08B85282F30E08F8146
:1023B000882F90E0281B390B88EE93E0289FA0011E
:1023C000299F500D389F500D11245D874C8716C0F2
:1023D0008B85882F90E09C012A5F3F4F8F81882F4B
:1023E00090E0281B390B88EE93E0289FA001299FDD
:1023F000500D389F500D11245D874C878C859D852D
:102400009C838B832D813E813B8B2A8B4B815C810E
:10241000598B488B888999892A893B8928173907DC
:1024200020F44A895B89598B488B888999899A83DA
:10243000898329813A81888599852817390730F45D
:1024400089819A81998788878F818A878F818F5F19
:102450008F838F81863008F464CF8A8563960FB6A8
:10246000F894DEBF0FBECDBFCF91DF910895DF930B
:10247000CF930F92CDB7DEB7898389818630C0F4C0
:102480008FE891E069810E94450C8981882F90E056
:10249000FC01E957FE4F81E08083809191018150DA
:1024A000809391010E94891280918F010E94C60C35
:1024B0000F90CF91DF910895DF93CF930F92CDB717
:1024C000DEB789838981863000F58981882F90E085
:1024D000FC01E957FE4F80818130B9F48FE891E02B
:1024E00069810E94450C8981882F90E0FC01E957A1
:1024F000FE4F1082809191018F5F809391010E9425
:10250000891280918F010E94C60C0F90CF91DF91AC
:102510000895DF93CF93CDB7DEB72091910180E08E
:1025200090E0622F0E94090F27E831E081E090E0FF
:10253000B90146E050E00E94640F20918F0187E0CE
:1025400090E0622F0E94090FCF91DF910895DF93F1
:10255000CF93CDB7DEB780E090E00E94310F80933B
:10256000910127E831E081E090E0B90146E050E0D8
:102570000E94A50F87E090E00E94310F80938F01A9
:10258000CF91DF910895DF93CF930F92CDB7DEB750
:1025900019820AC08981882F90E0019660E00E942C
:1025A000090F89818F5F89838981863098F380E064
:1025B00090E066E00E94090F87E090E060E00E94F2
:1025C000090F0F90CF91DF910895DF93CF930F9272
:1025D000CDB7DEB78FEF90E00E94310F853AF1F072
:1025E00080E090E066E00E94090F19820AC08981AC
:1025F000882F90E0019660E00E94090F89818F5F2B
:1026000089838981863098F387E090E060E00E94BA
:10261000090F8FEF90E065EA0E94090F0F90CF91AC
:10262000DF910895DF93CF93CDB7DEB781E080933C
:10263000900182E065E00E94700DCF91DF910895D6
:10264000DF93CF93CDB7DEB78DE891E00E940A11FA
:1026500081E080938601CF91DF910895DF93CF933E
:10266000CDB7DEB727970FB6F894DEBF0FBECDBF4C
:1026700082E065E00E94810D88E893E19D838C8370
:1026800080918D018B83109286018B81282F30E001
:102690003F832E838E819F818630910539F02E8174
:1026A0003F812730310509F462C08FC0109290013C
:1026B00080918F010E947E118A838A818F3F09F465
:1026C0004EC088E0809384018A818093850184E8EC
:1026D00091E00E94D81064EF71E080E090E00E94E9
:1026E000950B82E066E00E94700D8A810E9437128D
:1026F00082E066E00E94810D8AE08093840184E894
:1027000091E00E94D8100E94C00D65E070E080E06A
:1027100090E00E94950B0BC08C819D8101979D8359
:102720008C8361E070E080E090E00E94950B8091E6
:102730009001882321F48C819D81009769F78DE0B9
:102740008093840184E891E00E94D8100E94B70D24
:1027500061E070E080E090E00E94950B3DC089E070
:102760008093840184E891E00E94D81035C0809164
:102770008E0189838981863000F58981882F90E0D8
:10278000FC01E957FE4F80818130B9F482E066E0B8
:102790000E94700D89810E945C128BE080938401FD
:1027A00080918E018093850184E891E00E94D81089
:1027B00082E066E00E94810D0FC08CE0809384016E
:1027C00084E891E00E94D81007C08EE080938401D5
:1027D00084E891E00E94D81027960FB6F894DEBFE7
:1027E0000FBECDBFCF91DF910895FC010190002075
:1027F000E9F7809590958E0F9F1F0895AEE0B0E0A9
:10280000E4E0F4E10C94BA160D891E898F89988D45
:1028100097FF02C080E090E801979E838D831A8322
:10282000098386E08C839E01255E3F4FCE01019691
:10283000698D7A8DA9010E942F144D815E8157FD0B
:102840000AC02F813885421753070CF49A01020FF2
:10285000131FF80110822E96E4E00C94D616ABE01C
:10286000B0E0E5E3F4E10C94AC163C012B015A0115
:10287000FC0117821682838181FD03C06FEF7FEF19
:10288000C6C19AE0892E1E010894211C311CF30157
:102890002381F20123FD859123FF81912F0188235C
:1028A00009F4B2C1853239F423FD859123FF81916A
:1028B0002F01853229F490E0B3010E942216E7CF60
:1028C000982FFF24EE249924FFE1FF15D0F09B32CE
:1028D00069F09C3228F4903259F0933291F40EC092
:1028E0009D3249F0903369F441E024C052E0F52A6A
:1028F00084E0F82A28C098E0F92A25C0E0E1FE2A01
:1029000022C0F7FC29C0892F80538A3070F4F6FE6C
:1029100005C0989C902C1124980E15C0E89CE02CC2
:102920001124E80EF0E2FF2A0EC09E3229F4F6FCD4
:102930006BC140E4F42A07C09C3619F450E8F52A2C
:1029400002C0983649F4F20123FD959123FF91913D
:102950002F01992309F0B8CF892F8554833018F0BF
:102960008052833038F444E050E0A40EB51E5FE39B
:1029700059830FC0933631F0933779F0933509F0CE
:1029800056C020C0F5018081898342E050E0A40E4A
:10299000B51E610101E010E012C0F501C080D180D8
:1029A000F6FC03C06FEF7FEF02C0692D70E042E0DC
:1029B00050E0A40EB51EC6010E9417168C015FE7F9
:1029C000F52214C0F501C080D180F6FC03C06FEF82
:1029D0007FEF02C0692D70E042E050E0A40EB51E0A
:1029E000C6010E940C168C0150E8F52AF3FE07C0C0
:1029F0001AC080E290E0B3010E942216EA948E2D64
:102A000090E008171907A8F30EC0F601F7FC8591AE
:102A1000F7FE81916F0190E0B3010E942216E11050
:102A2000EA94015010400115110579F7EAC0943677
:102A300011F0993669F5F7FE08C0F5012081318162
:102A40004281538184E090E00AC0F5018081918148
:102A50009C01442737FD4095542F82E090E0A80E5A
:102A6000B91E9FE6F92257FF09C050954095309551
:102A700021953F4F4F4F5F4FE0E8FE2ACA01B90151
:102A8000A1012AE030E00E944E16D82ED21840C094
:102A9000953729F41F2D1F7E2AE030E01DC01F2D21
:102AA000197F9F3661F0903720F4983509F0ACC05B
:102AB0000FC0903739F0983709F0A6C004C028E05D
:102AC00030E00AC0106114FD146020E130E004C061
:102AD00014FD166020E132E017FF08C0F5016081A7
:102AE00071818281938144E050E008C0F5018081CA
:102AF0009181BC0180E090E042E050E0A40EB51E60
:102B0000A1010E944E16D82ED2188FE7F82EF1227E
:102B1000F6FE0BC05EEFF522D91438F4F4FE07C0C0
:102B2000F2FC05C08FEEF82202C01D2D01C0192D48
:102B3000F4FE0DC0FE01ED0DF11D8081803319F40E
:102B400099EEF92208C01F5FF2FE05C003C08F2D69
:102B5000867809F01F5F0F2DF3FC14C0F0FE0FC044
:102B60001E1510F09D2C0BC09D2C9E0C911A1E2D35
:102B700006C080E290E0B3010E9422161F5F1E157E
:102B8000C0F304C01E1510F4E11A01C0EE2404FFC6
:102B90000FC080E390E0B3010E94221602FF1DC027
:102BA00001FD03C088E790E00EC088E590E00BC00F
:102BB000802F867891F001FF02C08BE201C080E295
:102BC000F7FC8DE290E0B3010E94221606C080E37C
:102BD00090E0B3010E9422169A94D914C0F3DA94BB
:102BE000F101ED0DF11D808190E0B3010E942216EC
:102BF000DD20A9F706C080E290E0B3010E94221612
:102C0000EA94EE20C1F743CEF30166817781CB01D0
:102C10002B96E2E10C94C816FC01059061507040BF
:102C20000110D8F7809590958E0F9F1F0895FC0195
:102C30006150704001900110D8F7809590958E0FEB
:102C40009F1F08950F931F93CF93DF938C01EB0188
:102C50008B8181FF1BC082FF0DC02E813F818C8143
:102C60009D812817390764F4E881F9810193F9837C
:102C7000E88306C0E885F985802F0995892B31F412
:102C80008E819F8101969F838E8302C00FEF1FEF7D
:102C9000C801DF91CF911F910F910895FA01AA27E2
:102CA000283051F1203181F1E8946F936E7F6E5F8F
:102CB0007F4F8F4F9F4FAF4FB1E03ED0B4E03CD03D
:102CC000670F781F891F9A1FA11D680F791F8A1F20
:102CD000911DA11D6A0F711D811D911DA11D20D087
:102CE00009F468943F912AE0269F11243019305D41
:102CF0003193DEF6CF010895462F4770405D419332
:102D0000B3E00FD0C9F7F6CF462F4F70405D4A337E
:102D100018F0495D31FD4052419302D0A9F7EACF46
:102D2000B4E0A6959795879577956795BA95C9F775
:102D300000976105710508959B01AC010A2E069468
:102D40005795479537952795BA95C9F7620F731F21
:102D5000841F951FA01D08952F923F924F925F925E
:102D60006F927F928F929F92AF92BF92CF92DF929B
:102D7000EF92FF920F931F93CF93DF93CDB7DEB700
:102D8000CA1BDB0B0FB6F894DEBF0FBECDBF099494
:102D90002A88398848885F846E847D848C849B84EB
:102DA000AA84B984C884DF80EE80FD800C811B81F9
:102DB000AA81B981CE0FD11D0FB6F894DEBF0FBE28
:0A2DC000CDBFED010895F894FFCF98
:102DCA0041540D0A0041542B5253540D0A004154E8
:102DDA002B43574D4F44453D310D0A0041542B4377
:102DEA00574A41503D222573222C222573220D0A6F
:102DFA000073696D706C650031323334353637389B
:102E0A000041542B43495053544152543D22544398
:102E1A0050222C222573222C25730D0A0072656E0E
:102E2A006465722D74776F2E76657263656C2E6198
:102E3A0070700038300041542B43495053454E447A
:102E4A003D25640D0A007B22736C6F7473223A2548
:102E5A00647D00504F535420257320485454502FFA
:102E6A00312E310D0A486F73743A2025730D0A43C7
:102E7A006F6E74656E742D547970653A2061707046
:102E8A006C69636174696F6E2F6A736F6E0D0A43A2
:102E9A006F6E74656E742D4C656E6774683A202582
:102EAA00640D0A0D0A2573002F7570646174652D0F
:102EBA00736C6F74732F310072656E6465722D7452
:0E2ECA00776F2E76657263656C2E61707000F6
:00000001FF
