:100000000C942A000C94CC030C94F9030C94260451
:100010000C9447000C9447000C9447000C94470044
:100020000C9447000C9447000C9447000C94470034
:100030000C947B010C9447000C9447000C944700EF
:100040000C9447000C9447000C9447000C94470014
:100050000C94470011241FBECFE5D8E0DEBFCDBF12
:1000600011E0A0E6B0E0E8EBFEE102C005900D92E1
:10007000AA32B107D9F711E0AAE2B1E001C01D929E
:10008000A234B107E1F70E94990C0C945A0F0C941A
:100090000000DF93CF93CDB7DEB7AFE4B0E0EFE47D
:1000A000F0E0808182608C93AEE4B0E0EEE4F0E0BA
:1000B000808188608C93AEE4B0E0EEE4F0E0808173
:1000C00080618C93E6E4F0E08FE19EE4918380838D
:1000D000AFE4B0E0EFE4F0E0808180618C93AFE4C6
:1000E000B0E0EFE4F0E0808180628C93AEE4B0E0B9
:1000F000EEE4F0E0808182608C93EEE4F0E08081B9
:1001000080932A01CF91DF910895DF93CF9300D0A0
:10011000CDB7DEB79A838983E8E4F0E02FE13EE4CF
:1001200089819A81A901481B590BCA019183808357
:100130000F900F90CF91DF910895DF93CF93CDB7BC
:10014000DEB7ADE2B0E0EDE2F0E0808181608C935B
:10015000ADE2B0E0EDE2F0E0808180648C93CF917D
:10016000DF910895DF93CF9300D000D000D0CDB7BA
:10017000DEB79D838C8381E08B831A8219828C8108
:100180009D81009709F105C089819A8101969A8322
:100190008983EEE2F0E08081882334F089819A81BE
:1001A00023EC8035920780F389819A8123EC803596
:1001B000920719F481E08E8309C0EFE2F0E08081BC
:1001C000EC81FD8180831B822B812E838E8126967C
:1001D0000FB6F894DEBF0FBECDBFCF91DF9108956B
:1001E000DF93CF9300D000D00F92CDB7DEB78C83D2
:1001F00081E08B831A821982EFE2F0E08C818083A8
:1002000005C089819A8101969A838983EEE2F0E0A4
:100210008081882334F089819A8123EC803592078C
:1002200080F389819A8123EC8035920719F481E06B
:100230008D8303C01B822B812D838D810F900F90A6
:100240000F900F900F90CF91DF910895DF93CF9390
:10025000CDB7DEB728970FB6F894DEBF0FBECDBF7F
:100260009B838A837D836C834E8338872F8381E0D1
:1002700089838A819B810097A1F18C819D81009760
:1002800081F18F819885009761F119828A819B8124
:1002900090932E0180932D018C819D81909330014C
:1002A00080932F018F81988590932C0180932B014F
:1002B0008E8180933101AFE2B0E020912D01309129
:1002C0002E0180913201882F90E0F901E80FF91F8B
:1002D00080818C93ADE2B0E0EDE2F0E08081806857
:1002E0008C93898128960FB6F894DEBF0FBECDBFE0
:1002F000CF91DF9108951F920F920FB60F921124A4
:100300002F933F934F935F936F937F938F939F931D
:10031000AF93BF93EF93FF93DF93CF93CDB7DEB748
:1003200020912F013091300180913201882F90E08F
:10033000D901A80FB91FEFE2F0E080818C93909172
:10034000320180913101981789F410923201109294
:100350003101ADE2B0E0EDE2F0E080818F778C9387
:10036000E0912B01F0912C01099514C0809132018C
:100370008F5F80933201AFE2B0E020912D01309188
:100380002E0180913201882F90E0F901E80FF91FCA
:1003900080818C93CF91DF91FF91EF91BF91AF91CD
:1003A0009F918F917F916F915F914F913F912F918D
:1003B0000F900FBE0F901F901895DF93CF93CDB77E
:1003C000DEB7AFE5B0E0EFE5F0E0808180688C93C8
:1003D000CF91DF910895DF93CF93CDB7DEB7AFE52F
:1003E000B0E0EFE5F0E080818F778C93CF91DF91E3
:1003F0000895DF93CF93CDB7DEB7A5E5B0E0E5E58F
:10040000F0E0808182608C93A5E5B0E0E5E5F0E066
:1004100080818E7F8C93ABE5B0E0EBE5F0E08081EE
:1004200080648C93CF91DF910895DF93CF93CDB704
:10043000DEB7A5E5B0E0E5E5F0E0808188608C936B
:10044000A5E5B0E0E5E5F0E080818B7F8C93ABE53E
:10045000B0E0EBE5F0E0808180688C93CF91DF9194
:100460000895DF93CF93CDB7DEB7A4E5B0E0E4E520
:10047000F0E080818F7B8C93ABE5B0E0EBE5F0E0C2
:10048000808180628C93CF91DF910895DF93CF9329
:1004900000D00F92CDB7DEB789838981282F30E055
:1004A0003B832A838A819B818230910529F12A81AD
:1004B0003B812330310534F48A819B818130910561
:1004C00061F046C02A813B812330310521F18A81C8
:1004D0009B818430910571F13BC0A5E5B0E0E5E575
:1004E000F0E080818D7F8C93A5E5B0E0E5E5F0E05C
:1004F00080818E7F8C932CC0A5E5B0E0E5E5F0E02F
:1005000080818D7F8C93A5E5B0E0E5E5F0E080810A
:1005100081608C931DC0A5E5B0E0E5E5F0E0808149
:1005200082608C93A5E5B0E0E5E5F0E080818E7F08
:100530008C930EC0A5E5B0E0E5E5F0E08081826037
:100540008C93A5E5B0E0E5E5F0E0808181608C93D7
:100550000F900F900F90CF91DF910895DF93CF937D
:1005600000D00F92CDB7DEB789838981282F30E084
:100570003B832A838A819B818230910529F12A81DC
:100580003B812330310534F48A819B818130910590
:1005900061F046C02A813B812330310521F18A81F7
:1005A0009B818430910571F13BC0A5E5B0E0E5E5A4
:1005B000F0E08081877F8C93A5E5B0E0E5E5F0E091
:1005C00080818B7F8C932CC0A5E5B0E0E5E5F0E061
:1005D0008081877F8C93A5E5B0E0E5E5F0E0808140
:1005E00084608C931DC0A5E5B0E0E5E5F0E0808176
:1005F00088608C93A5E5B0E0E5E5F0E080818B7F35
:100600008C930EC0A5E5B0E0E5E5F0E08081886060
:100610008C93A5E5B0E0E5E5F0E0808184608C9303
:100620000F900F900F90CF91DF910895DF93CF93AC
:1006300000D00F92CDB7DEB789838981282F30E0B3
:100640003B832A838A819B818330910531F02A8103
:100650003B812430310549F00FC0A4E5B0E0E4E56A
:10066000F0E080818F7B8C9307C0A4E5B0E0E4E5E7
:10067000F0E0808180648C930F900F900F90CF9169
:10068000DF910895DF93CF93CDB7DEB7ABE5B0E050
:10069000EBE5F0E0808180648C93CF91DF91089549
:1006A000DF93CF93CDB7DEB7ABE5B0E0EBE5F0E09D
:1006B00080818F7B8C93CF91DF910895DF93CF93CF
:1006C000CDB7DEB7ABE5B0E0EBE5F0E08081806868
:1006D0008C93CF91DF910895DF93CF93CDB7DEB7A1
:1006E000ABE5B0E0EBE5F0E080818F778C93CF91C4
:1006F000DF910895DF93CF93CDB7DEB7ABE5B0E0E0
:10070000EBE5F0E0808180628C93CF91DF910895DA
:10071000DF93CF93CDB7DEB7ABE5B0E0EBE5F0E02C
:1007200080818F7D8C93CF91DF910895DF93CF935C
:1007300000D0CDB7DEB79A83898389819A8190935F
:100740003401809333010F900F90CF91DF91089582
:10075000DF93CF9300D0CDB7DEB79A8389838981A9
:100760009A8190933801809337010F900F90CF9129
:10077000DF910895DF93CF9300D0CDB7DEB79A8392
:10078000898389819A8190933601809335010F90F6
:100790000F90CF91DF9108951F920F920FB60F9295
:1007A00011242F933F934F935F936F937F938F9376
:1007B0009F93AF93BF93EF93FF93DF93CF93CDB707
:1007C000DEB7E0913301F09134010995CF91DF91CB
:1007D000FF91EF91BF91AF919F918F917F916F9119
:1007E0005F914F913F912F910F900FBE0F901F90EF
:1007F00018951F920F920FB60F9211242F933F93CB
:100800004F935F936F937F938F939F93AF93BF9318
:10081000EF93FF93DF93CF93CDB7DEB7E09137012E
:10082000F09138010995CF91DF91FF91EF91BF9140
:10083000AF919F918F917F916F915F914F913F9178
:100840002F910F900FBE0F901F9018951F920F922F
:100850000FB60F9211242F933F934F935F936F9393
:100860007F938F939F93AF93BF93EF93FF93DF9308
:10087000CF93CDB7DEB7E0913501F0913601099500
:10088000CF91DF91FF91EF91BF91AF919F918F91A8
:100890007F916F915F914F913F912F910F900FBE7C
:1008A0000F901F901895DF93CF93CDB7DEB72A979F
:1008B0000FB6F894DEBF0FBECDBF8A836B834C8327
:1008C00019828C81282F30E03A87298789859A857B
:1008D000009739F029853A852130310509F478C02F
:1008E000E9C08A81282F30E038872F838F8198854F
:1008F0008130910559F12F813885223031052CF452
:100900008F819885009769F060C02F8138852230EB
:10091000310589F18F8198858330910509F440C0B4
:1009200054C0AAE3B0E0EAE3F0E08081482F8B8175
:10093000282F30E081E090E0022E02C0880F991F3E
:100940000A94E2F7809584238C93B6C0A7E3B0E0C5
:10095000E7E3F0E08081482F8B81282F30E081E0B1
:1009600090E0022E02C0880F991F0A94E2F780954A
:1009700084238C93A1C0A4E3B0E0E4E3F0E08081A1
:10098000482F8B81282F30E081E090E0022E02C0BA
:10099000880F991F0A94E2F7809584238C938CC06A
:1009A000A1E3B0E0E1E3F0E08081482F8B81282FC4
:1009B00030E081E090E0022E02C0880F991F0A9477
:1009C000E2F7809584238C9377C081E0898374C09B
:1009D0008A81282F30E03E832D838D819E81813056
:1009E000910549F12D813E81223031052CF48D8114
:1009F0009E81009761F05BC02D813E8122303105E0
:100A000071F18D819E8183309105E9F150C0AAE397
:100A1000B0E0EAE3F0E08081482F8B81282F30E0BE
:100A200081E090E0022E02C0880F991F0A94E2F73D
:100A3000842B8C9341C0A7E3B0E0E7E3F0E0808132
:100A4000482F8B81282F30E081E090E0022E02C0F9
:100A5000880F991F0A94E2F7842B8C932DC0A4E38E
:100A6000B0E0E4E3F0E08081482F8B81282F30E074
:100A700081E090E0022E02C0880F991F0A94E2F7ED
:100A8000842B8C9319C0A1E3B0E0E1E3F0E0808116
:100A9000482F8B81282F30E081E090E0022E02C0A9
:100AA000880F991F0A94E2F7842B8C9305C081E08C
:100AB000898302C081E0898389812A960FB6F894E0
:100AC000DEBF0FBECDBFCF91DF910895DF93CF93EF
:100AD000CDB7DEB72A970FB6F894DEBF0FBECDBFF5
:100AE0008A836B834C8319828C81282F30E03A876C
:100AF000298789859A85009739F029853A8521309B
:100B0000310509F478C0E9C08A81282F30E03887A0
:100B10002F838F8198858130910559F12F813885F8
:100B2000223031052CF48F819885009769F060C0E0
:100B30002F8138852230310589F18F819885833066
:100B4000910509F440C054C0ABE3B0E0EBE3F0E042
:100B50008081482F8B81282F30E081E090E0022EA9
:100B600002C0880F991F0A94E2F7809584238C9322
:100B7000B6C0A8E3B0E0E8E3F0E08081482F8B81C5
:100B8000282F30E081E090E0022E02C0880F991FEC
:100B90000A94E2F7809584238C93A1C0A5E3B0E08A
:100BA000E5E3F0E08081482F8B81282F30E081E061
:100BB00090E0022E02C0880F991F0A94E2F78095F8
:100BC00084238C938CC0A2E3B0E0E2E3F0E0808168
:100BD000482F8B81282F30E081E090E0022E02C068
:100BE000880F991F0A94E2F7809584238C9377C02D
:100BF00081E0898374C08A81282F30E03E832D8371
:100C00008D819E818130910549F12D813E81223077
:100C100031052CF48D819E81009761F05BC02D81A0
:100C20003E812230310571F18D819E8183309105A5
:100C3000E9F150C0ABE3B0E0EBE3F0E08081482F96
:100C40008B81282F30E081E090E0022E02C0880FD7
:100C5000991F0A94E2F7842B8C9341C0A8E3B0E07B
:100C6000E8E3F0E08081482F8B81282F30E081E09D
:100C700090E0022E02C0880F991F0A94E2F7842B9D
:100C80008C932DC0A5E3B0E0E5E3F0E08081482F30
:100C90008B81282F30E081E090E0022E02C0880F87
:100CA000991F0A94E2F7842B8C9319C0A2E3B0E059
:100CB000E2E3F0E08081482F8B81282F30E081E053
:100CC00090E0022E02C0880F991F0A94E2F7842B4D
:100CD0008C9305C081E0898302C081E0898389818A
:100CE0002A960FB6F894DEBF0FBECDBFCF91DF912D
:100CF0000895DF93CF9300D000D00F92CDB7DEB729
:100D00008A836B8319828A81282F30E03D832C836C
:100D10008C819D8181309105D1F02C813D812230E3
:100D200031052CF48C819D81009761F01FC02C81CE
:100D30003D812230310581F08C819D818330910588
:100D400081F014C0EAE3F0E08B81808311C0E7E317
:100D5000F0E08B8180830CC0E4E3F0E08B81808342
:100D600007C0E1E3F0E08B81808302C081E08983EA
:100D700089810F900F900F900F900F90CF91DF917E
:100D80000895DF93CF9300D000D00F92CDB7DEB798
:100D90008A836B8319828A81282F30E03D832C83DC
:100DA0008C819D8181309105D1F02C813D81223053
:100DB00031052CF48C819D81009761F01FC02C813E
:100DC0003D812230310581F08C819D8183309105F8
:100DD00081F014C0EBE3F0E08B81808311C0E8E385
:100DE000F0E08B8180830CC0E5E3F0E08B818083B1
:100DF00007C0E2E3F0E08B81808302C081E0898359
:100E000089810F900F900F900F900F90CF91DF91ED
:100E10000895DF93CF9300D000D00F92CDB7DEB707
:100E20008A836B8319828A81282F30E03D832C834B
:100E30008C819D818130910549F12C813D81223049
:100E400031052CF48C819D81009761F05BC02C8171
:100E50003D812230310571F18C819D818330910576
:100E6000E9F150C0ABE3B0E0EBE3F0E08081482F64
:100E70008B81282F30E081E090E0022E02C0880FA5
:100E8000991F0A94E2F784278C933EC0A8E3B0E050
:100E9000E8E3F0E08081482F8B81282F30E081E06B
:100EA00090E0022E02C0880F991F0A94E2F784276F
:100EB0008C932AC0A5E3B0E0E5E3F0E08081482F01
:100EC0008B81282F30E081E090E0022E02C0880F55
:100ED000991F0A94E2F784278C9316C0A2E3B0E02E
:100EE000E2E3F0E08081482F8B81282F30E081E021
:100EF00090E0022E02C0880F991F0A94E2F784271F
:100F00008C9302C081E0898389810F900F900F90AC
:100F10000F900F90CF91DF910895DF93CF93CDB7CE
:100F2000DEB727970FB6F894DEBF0FBECDBF8A831A
:100F30006B835D834C8319828A81282F30E03F8345
:100F40002E834E815F814130510559F18E819F8101
:100F50008230910534F42E813F812115310569F0ED
:100F60005CC04E815F814230510579F18E819F8155
:100F70008330910509F43DC050C0E9E3F0E0808181
:100F8000282F30E08B81882F90E0A90102C0559571
:100F900047958A95E2F7CA018170EC81FD818083D3
:100FA0003EC0E6E3F0E08081282F30E08B81882F7F
:100FB00090E0A90102C0559547958A95E2F7CA01CC
:100FC0008170EC81FD8180832AC0E3E3F0E08081C1
:100FD000282F30E08B81882F90E0A90102C0559521
:100FE00047958A95E2F7CA018170EC81FD81808383
:100FF00016C0E0E3F0E08081282F30E08B81882F5D
:1010000090E0A90102C0559547958A95E2F7CA017B
:101010008170EC81FD81808302C081E089838981B8
:1010200027960FB6F894DEBF0FBECDBFCF91DF91EC
:101030000895DF93CF93CDB7DEB72C970FB6F89412
:10104000DEBF0FBECDBF69877A878B879C871D82E5
:101050001E821F82188619821A821B821C821D82A0
:101060001E821F82188628C019821A821B821C8247
:101070000FC0000000000000000089819A81AB8150
:10108000BC810196A11DB11D89839A83AB83BC836A
:1010900089819A81AB81BC81803D9105A105B10513
:1010A00040F38D819E81AF81B8850196A11DB11D50
:1010B0008D839E83AF83B8872D813E814F81588574
:1010C00089859A85AB85BC85281739074A075B0750
:1010D00058F22C960FB6F894DEBF0FBECDBFCF915D
:1010E000DF910895DF93CF93CDB7DEB782E060E064
:1010F00041E00E94530482E061E041E00E94530419
:1011000082E062E041E00E94530482E063E041E05B
:101110000E94530482E064E040E00E94530482E0B5
:1011200065E040E00E94530482E066E040E00E94F7
:10113000530482E063E041E00E94660582E062E0E1
:1011400041E00E94660582E061E041E00E946605A0
:1011500082E060E041E00E94660582E066E041E0F6
:101160000E94660582E065E041E00E94660582E03B
:1011700064E041E00E946605CF91DF910895DF931E
:10118000CF9300D000D00F92CDB7DEB71B821A826A
:101190008FEF89831A824CC082E06A8140E00E940E
:1011A000660584E08B8339C09E012C5F3F4F82E04F
:1011B0006B81A9010E948D07882331F58C818823DA
:1011C00019F58A81282F30E08B81882F90E0AC01BF
:1011D00044505040C901880F991F820F931F840FFC
:1011E000951FFC01E25EFE4F808189836AE070E01A
:1011F00080E090E00E94190882E06A8141E00E944C
:10120000660589818D831AC06AE070E080E090E015
:101210000E9419088B818F5F8B838B81873020F22E
:1012200082E06A8141E00E9466058A818F5F8A833D
:101230008A81843008F4B0CF89818D838D810F90AD
:101240000F900F900F900F90CF91DF910895DF9343
:10125000CF93CDB7DEB70E94490083E064E041E060
:101260000E945304CF91DF910895DF93CF9300D074
:1012700000D0CDB7DEB78C831B828C81853BC0F458
:101280008C81482F50E0CA01880F991F9C01220FC2
:10129000331F220F331F820F931F840F951F865118
:1012A0009E4F9A83898389819A810E94850002C01A
:1012B00081E08B838B810F900F900F900F90CF91D7
:1012C000DF910895DF93CF93CDB7DEB783E061E080
:1012D00041E00E94530483E060E041E00E94530437
:1012E000CF91DF910895DF93CF9300D0CDB7DEB7D4
:1012F00089836A8389816A8141E00E9466050F9033
:101300000F90CF91DF910895DF93CF9300D0CDB7A9
:10131000DEB789836A8389816A8140E00E9466051D
:101320000F900F90CF91DF910895DF93CF9300D06E
:10133000CDB7DEB789836A8389816A810E940907F4
:101340000F900F90CF91DF910895DF93CF93CDB79A
:10135000DEB780E06FEF0E94790681E060E041E057
:101360000E94530481E061E041E00E94530481E067
:1013700062E041E00E94530465E070E080E090E0AC
:101380000E94190888E30E94E80A62E070E080E0A9
:1013900090E00E9419088EE00E94E80A62E070E086
:1013A00080E090E00E94190881E00E94E80A62E073
:1013B00070E080E090E00E941908CF91DF910895DD
:1013C000DF93CF9300D000D000D0CDB7DEB79C83A1
:1013D0008B836D834E831A828D81803138F48E81A8
:1013E000823020F48B819C81009719F481E08A83FC
:1013F0003AC08E81882F90E00024969587950794B7
:10140000969587950794982F802D982F8D81890F19
:10141000898389818068898389810E94E80A1EC046
:10142000EB81FC8120818B819C8101969C838B8345
:10143000822F0E94D60A89818F5F898389818039B2
:1014400029F480EC898389810E94E80A8981803DA2
:1014500029F480E8898389810E94E80AEB81FC8174
:1014600080818823E9F68A8126960FB6F894DEBF3C
:101470000FBECDBFCF91DF910895DF93CF9300D002
:1014800000D000D0CDB7DEB79D838C836E831B82E6
:101490008E81893010F081E08B8380E40E94E80A1D
:1014A0001A8222C019821AC08A81882F90E09C017A
:1014B000220F331F220F331F220F331F8C819D8178
:1014C000280F391F8981882F90E0F901E80FF91F53
:1014D00080810E94D60A89818F5F898389818830C3
:1014E00018F38A818F5F8A839A818E819817D0F250
:1014F0008B8126960FB6F894DEBF0FBECDBFCF917D
:10150000DF910895DF93CF9300D000D00F92CDB735
:10151000DEB78B836C834D831A828C81803118F403
:101520008D81823018F081E08A8319C08D81882FE7
:1015300090E0002496958795079496958795079453
:10154000982F802D982F8C81890F898389818068BD
:10155000898389810E94E80A8B810E94D60A8A8148
:101560000F900F900F900F900F90CF91DF910895F3
:10157000DF93CF93CDB7DEB781E00E94E80ACF9129
:10158000DF910895DF93CF93CDB7DEB78CE10E9452
:10159000E80ACF91DF910895DF93CF93CDB7DEB7FF
:1015A00088E10E94E80ACF91DF910895DF93CF93FD
:1015B0000F92CDB7DEB7898381E060E041E00E9401
:1015C000660589810E94FA0A0F90CF91DF910895F4
:1015D000DF93CF930F92CDB7DEB7898381E060E0D0
:1015E00040E00E94660589810E94FA0A0F90CF911F
:1015F000DF910895DF93CF9300D0CDB7DEB78A8314
:10160000198281E062E040E00E946605898381E002
:1016100061E040E00E946605898380E06A810E9463
:10162000C106898381E062E041E00E94660589830A
:1016300061E070E080E090E00E94190881E062E0E3
:1016400040E00E946605898365E070E080E090E0FC
:101650000E94190889810F900F90CF91DF91089512
:10166000EF92FF920F931F93DF93CF9300D000D0A0
:1016700000D0CDB7DEB79E838D8381E090E0A0E0FF
:10168000B0E089839A83AB83BC838D819E81009770
:1016900071F580E30E94D60A2AC089819A81AB81C4
:1016A000BC812AE030E040E050E0BC01CD010E9466
:1016B000050F7B018C018D819E812AE030E0B9010C
:1016C0000E94240FCC01A0E0B0E08E0D9F1DA01F52
:1016D000B11F89839A83AB83BC838D819E812AE06D
:1016E00030E0B9010E94240FCB019E838D838D8150
:1016F0009E81009791F623C089819A81AB81BC813C
:101700002AE030E040E050E0BC01CD010E94380FFB
:10171000DC01CB01805D0E94D60A89819A81AB8170
:10172000BC812AE030E040E050E0BC01CD010E94E5
:10173000380FDA01C90189839A83AB83BC8389811D
:101740009A81AB81BC8181309105A105B105A1F6DB
:1017500026960FB6F894DEBF0FBECDBFCF91DF91B6
:101760001F910F91FF90EF900895DF93CF93CDB726
:10177000DEB783E062E040E00E94530483E062E071
:1017800041E00E9466050E94F90183E00E94460242
:101790000E944203CF91DF910895DF93CF9300D051
:1017A000CDB7DEB79A83898389819A810E94960397
:1017B0000F900F90CF91DF910895DF93CF93CDB726
:1017C000DEB783E063E040E00E9453040E9415020C
:1017D00083E00E94AE020E945E03CF91DF910895E4
:1017E000DF93CF9300D0CDB7DEB79A838983898109
:1017F0009A810E94A8030F900F90CF91DF910895D6
:10180000DF93CF93CDB7DEB781E064E040E00E9484
:10181000530481E065E040E00E94530481E066E00B
:1018200041E00E94530481E067E040E00E945304DD
:101830000E949D0081E063E041E00E945304CF914B
:10184000DF910895DF93CF9300D0CDB7DEB79A83B1
:10185000898389819A810E94B2000F900F90CF9165
:10186000DF910895DF93CF930F92CDB7DEB78983D1
:1018700089810E94F0000F90CF91DF910895DF934E
:10188000CF9300D0CDB7DEB79A83898381E063E040
:1018900041E00E94660589819A810E94590C81E08D
:1018A00063E040E00E9466050F900F90CF91DF91BA
:1018B0000895DF93CF9300D00F92CDB7DEB79B830F
:1018C0008A8319820EC08981282F30E08A819B810A
:1018D000FC01E20FF31F80810E94F00089818F5F7D
:1018E00089838981823078F30F900F900F90CF9188
:1018F000DF910895DF93CF9300D00F92CDB7DEB77D
:101900009B838A8319820CC08981282F30E08A81C9
:101910009B81820F931F0E94B20089818F5F898310
:101920008981823088F30F900F900F90CF91DF91D3
:101930000895DF93CF9300D0CDB7DEB71A82198216
:101940000E94D90C81E491E00E94220C8091410117
:10195000803261F48EE391E00E947A0C80913E0126
:101960008F3F11F00E94020D1092410180914001C1
:10197000882321F480913D01882369F08091400102
:10198000882329F0109240010E940C0E04C010928E
:101990003D010E942A0E89819A812EE480329207AD
:1019A00011F40E94DD0189819A8101969A838983CD
:1019B000C9CFDF93CF93CDB7DEB70E94000C0E9452
:1019C000A5090E9462090E9472080E94B50B0E943C
:1019D000DD0B0E94270983E061E00E94730980E02B
:1019E0000E94350981EF9EE00E94CD0B8BEF9EE0B7
:1019F0000E94F00B8FEF80933E010E94DD01CF919A
:101A0000DF910895DF93CF9300D0CDB7DEB78091FB
:101A10003E01282F30E03A83298389819A818B30D7
:101A2000910509F47AC029813A812C3031058CF472
:101A300089819A818930910509F49EC029813A8172
:101A40002A30310574F589819A8188309105A1F099
:101A5000D6C029813A812D30310509F448C08981E9
:101A60009A818D3091050CF498C029813A812E30ED
:101A7000310509F4ABC0C3C00E94B80A80E690E00B
:101A800060E040E00E94E00980913F01882F90E0F3
:101A90000E94300B8CEF809341018FEF80933E01C9
:101AA000B6C00E94B80A8AE50E94350983E060E06A
:101AB0000E94730983E061E00E94840980E790E05E
:101AC00060E040E00E94E0098CE790E060E041E0E7
:101AD0000E94E00980913F01882F90E00E94300B26
:101AE0008FEF80933E018CEF8093410190C080E0A6
:101AF0000E94350983E060E00E94840983E061E090
:101B00000E9473090E94B80A8FEF80933E018CEF08
:101B1000809341010E94DD017AC00E94B80A81E8E9
:101B200090E060E040E00E94E0098AE50E9435090B
:101B300083E060E00E94730983E061E00E94840911
:101B400068EB7BE080E090E00E94190880E00E9452
:101B5000350983E060E00E94840983E061E00E942F
:101B600073090E94B80A8FEF80933E018CEF809337
:101B700041010E94DD014BC00E94B80A8EE890E04E
:101B800060E040E00E94E0098FEF80933E018CEF1F
:101B9000809341010E94DD013AC00E94B80A8CE99D
:101BA00090E060E040E00E94E00968EE73E080E0D1
:101BB00090E00E9419080E94B80A8FEF80933E01BE
:101BC0008CEF809341010E94DD0121C00E94B80A80
:101BD0008BEA90E060E040E00E94E00968EE73E08C
:101BE00080E090E00E9419080E94B80A8FEF80936D
:101BF0003E018CEF809341010E94DD0108C08FEF10
:101C000080933E018CEF809341010E94DD010F9093
:101C10000F90CF91DF910895DF93CF93CDB7DEB7CB
:101C20000E94EB010E94B80A8BEB90E060E040E07C
:101C30000E94E00967EE73E080E090E00E941908DE
:101C400086E080933B018BE391E00E943F0CCF91B3
:101C5000DF910895DF93CF9300D000D00F92CDB7DE
:101C6000DEB70E94EB011D820E94B80A8BEB90E068
:101C700060E040E00E94E0098FEF8C838EE190E00D
:101C80009B838A8367EE73E080E090E00E941908EE
:101C90009CC00E94B80A8D81823028F00E94DD012C
:101CA0000E94B80A96C08BED90E060E040E00E9490
:101CB000E00986EE90E060E041E00E94E0098EE1FC
:101CC00090E09B838A8311C00E94BF088C838C8123
:101CD0008F3F79F461E070E080E090E00E941908A5
:101CE0008A819B8101979B838A838A819B8100974C
:101CF00059F78C81813021F08C81823009F054C0F9
:101D00008C81813081F486E080933B010E94B80A87
:101D100085EF90E060E040E00E94E0098BE391E015
:101D20000E943F0C56C08C81823009F04BC064E6A3
:101D300070E080E090E00E9419080E94B80A80E0FC
:101D400091E060E040E00E94E00987E080933B0181
:101D50008FEF89838EE190E09B838A8311C00E947C
:101D6000BF08898389818F3F79F461E070E080E06A
:101D700090E00E9419088A819B8101979B838A8346
:101D80008A819B81009759F7898180933C010E9449
:101D9000B80A85EF90E060E040E00E94E0098BE344
:101DA00091E00E943F0C15C00E94B80A8FE091E0BC
:101DB00060E040E00E94E00960E273E080E090E0D3
:101DC0000E9419088D818F5F8D838D81833008F487
:101DD00060CF0F900F900F900F900F90CF91DF91E9
:101DE0000895DF93CF93CDB7DEB781E080934001B4
:101DF000CF91DF910895DF93CF93CDB7DEB781E028
:101E000080933D01CF91DF910895629FD001739F30
:101E1000F001829FE00DF11D649FE00DF11D929F86
:101E2000F00D839FF00D749FF00D659FF00D9927C5
:101E3000729FB00DE11DF91F639FB00DE11DF91FE9
:101E4000BD01CF0111240895AA1BBB1B51E107C09E
:101E5000AA1FBB1FA617B70710F0A61BB70B881F3A
:101E6000991F5A95A9F780959095BC01CD010895C9
:101E7000A1E21A2EAA1BBB1BFD010DC0AA1FBB1F8E
:101E8000EE1FFF1FA217B307E407F50720F0A21B00
:101E9000B30BE40BF50B661F771F881F991F1A946D
:101EA00069F760957095809590959B01AC01BD0197
:081EB000CF010895F894FFCF63
:101EB800456D70747920536C6F742049443A200042
:101EC800536C6F74205265616479210049443A204B
:101ED80000436172206973205265616479004E6F16
:101EE80020456D70747920536C6F740057726F6E53
:101EF8006720536C6F742049442100554E4B4E4F58
:101F0800574E20524551554553540057656C636FE1
:101F18006D6520546F20536D617274205061726B2F
:101F2800696E672073797374656D00313A50617218
:101F38006B2043617200323A526574726965766546
:101F4800204361720050726F63657373696E670036
:101F5800456E74657220536C6F742049443A004989
:101F68006E76616C69642063686F6963650001025D
:0A1F7800030405060708092A0023E8
:00000001FF
